:100000000C942A000C9447000C9447000C94470071
:100010000C949D000C9447000C9447000C944700EE
:100020000C9473010C9447000C9447000C94470007
:100030000C9447000C9447000C9447000C94470024
:100040000C9447000C9447000C9447000C94470014
:100050000C94470011241FBECFE5D4E0DEBFCDBF16
:1000600010E0A0E6B0E0E6E0FDE002C005900D92F1
:10007000AE3EB107D9F710E0AEEEB0E001C01D9280
:10008000AF3FB107E1F70E94FD010C9481060C948B
:100090000000D59ADD980895D69ADE980895462FE7
:1000A00061E070E050E00E946A060895FF920F93AD
:1000B0001F938C01F62E61E070E04F2D50E00E94FE
:1000C0005A06E02FF12F80E006C090819C3308F0A3
:1000D00091E091938F5F8F15C0F31F910F91FF9067
:1000E0000895D79ADF9ADD98DE9888E592E030E2AD
:1000F0002BB323272BBBE3EDF0E33197F1F700C0DF
:1001000000000197A9F7DF98DD98DE98089584E054
:100110008EBD86EF9FEF9DBD8CBD89B7846089BF82
:10012000089589B78F7389BF88E082BD14BC85E0CC
:1001300085BD89B7806489BF08951F920F920FB65D
:100140000F9211242F933F934F935F936F937F935D
:100150008F939F93AF93BF93EF93FF938091F200A0
:10016000882341F5F8948091EE009091EF0001967C
:100170009093EF008093EE008091FD008823C9F4F6
:1001800087EF90E00E947E02813041F0833049F495
:100190000E94710081E08093F2000CC0DD9ADE9A2B
:1001A00008C08BB390E289278BBB8BB390E489277F
:1001B0008BBB7894FF91EF91BF91AF919F918F91FD
:1001C0007F916F915F914F913F912F910F900FBE53
:1001D0000F901F90189587EF90E00E94AE0308954E
:1001E0008091FD00882309F47AC00E943304813095
:1001F00039F1813008F45BC08230C1F1833009F0FD
:100200006EC08091F100882361F487EF90E00E9436
:10021000BB0284E08093F1001092EF001092EE0098
:100220003EC01092EF001092EE008091F000982FE7
:100230009F5F9093F000823091F51092F0002FC0F4
:100240008091F100882309F44AC01092EF001092C7
:10025000EE00E091F000F0E0E950FF4F8381982F2D
:100260009F5F93838B33B9F4138215C08091F100A3
:100270008823A9F11092EF001092EE00E091F000B7
:10028000F0E0E950FF4F8381982F915093838823AA
:1002900011F48BE3838387EF90E00E94AE0287EF37
:1002A00090E06091F0000E94B30381E00895809196
:1002B000F1008430A1F487EF90E06091F0000E949B
:1002C000B3038091EE009091EF008B30910548F0E0
:1002D0001092F1008AEF90E063E00E944F0080E00E
:1002E000089581E008951F920F920FB60F92112486
:1002F0002F933F934F935F936F937F938F939F932E
:10030000AF93BF93EF93FF930E94F000882311F403
:100310000E94EB0086EF9FEF9DBD8CBD84E08EBDFB
:1003200089B7846089BFFF91EF91BF91AF919F9191
:100330008F917F916F915F914F913F912F910F908E
:100340000FBE0F901F901895AF92BF92CF92DF9281
:10035000EF92FF920F931F93DF93CF9300D000D0C3
:1003600000D0CDB7DEB719821A821B821C821D8293
:100370001E826CE070E00E9446065B01EE24FF24C2
:100380008E010F5F1F4F8E2D869590E0F801E80FCC
:10039000F91F3081E0FE02C02AEA01C022E2800F8C
:1003A000911F232BFC012083CC24DD24CA14DB0401
:1003B00060F4C80166E00E94F402C80166E00E9491
:1003C000F4020894C11CD11CF1CF0894E11CF11C6B
:1003D000FCE0EF16F104B9F626960FB6F894DEBFEE
:1003E0000FBECDBFCF91DF911F910F91FF90EF9086
:1003F000DF90CF90BF90AF900895EF92FF920F9350
:100400001F93DF93CF93CDB7DEB7AA970FB6F894BB
:10041000DEBF0FBECDBF0E9453040E9408050E949C
:10042000CC040E9449000E944C000E94BF020E941E
:10043000CC0388EB9BE00E94A401CE01019663E00F
:100440000E94560087EF90E069814A812B810E94CB
:1004500074020E9487000E94910078941C821D8281
:100460001E821F821886198620E084E0E82EF12C77
:10047000EC0EFD1E8E01065F1F4F233510F42F5F1B
:100480001EC0F70180E09191890FE017F107D9F7BD
:10049000823028F087EF90E00E94B80204C087EF16
:1004A00090E00E94BB028D818C838E818D838F8131
:1004B0008E8388858F8389858887198620E0C80187
:1004C00060E22AA70E940E062AA5882331F08B85B8
:1004D000823019F089858F5F898783EC99E00197D5
:1004E000F1F700C00000C9CFFC01258322834483BB
:1004F00041836383608381E086830895FC01828168
:10050000882331F49181992319F49081992301F181
:10051000982F91509283882381F48BE38283918179
:10052000292F21502183992341F481838081982FA1
:1005300091509083882309F4108282818B3050F48B
:100540008181882349F481E09081992331F002C0B0
:1005500083E0089580E0089580E00895FC018381A0
:100560009481258122839183808381E0868308950D
:10057000FC011682089521E0FC01268308958FEF87
:1005800081BB12BAE0E6F0E081E090E044B3DF0125
:100590009C01019002C0220F331F0A94E2F7422B04
:1005A00044BB45B39C010C9002C0220F331F0A9438
:1005B000E2F72095242325BB20E0E636F20731F749
:1005C000089562BB95B321E030E002C0220F331FD3
:1005D0008A95E2F7922B95BB84E68A95F1F785B36D
:1005E0002095282325BB0895EF92FF920F931F9328
:1005F000CF93DF93062F673008F006E0E82EE7017F
:100600007E01F92EE70110E005C06991812F0E945B
:10061000E1021F5F1017C8F3DF91CF911F910F9177
:10062000FF90EF9008957F928F929F92AF92BF922A
:10063000CF92DF92EF92FF920F931F93CF93DF93AE
:10064000762E30E6E32E30E0F32E082F192FC0E08F
:10065000D0E0C42EDD24A22EBB2486EA882E912C65
:1006600043C08C2F96010C2E02C0359527950A9415
:10067000E2F7D801EC9120FF06C0F0E0EA59FF4F05
:100680006081616004C0F0E0EA59FF4F6081F501CC
:1006900002C0F595E7958A95E2F7E0FF05C08091E5
:1006A000F300882309F460E080917000909171005C
:1006B0009C012150304030937100209370000097CE
:1006C00059F4909271008092700081E09091F30053
:1006D000911180E08093F300D7018D917D010E94FC
:1006E000E10221960F5F1F4FC71508F4BACFDF91C3
:1006F000CF911F910F91FF90EF90DF90CF90BF901F
:10070000AF909F908F907F900895DF93CF9300D00C
:1007100000D000D0CDB7DEB7FC01242F80813AE0B5
:10072000632F0E943A0689839A8381810E943A0648
:100730008B839C8382810E943A068D839E83CE01A7
:10074000019666E04AE00E94130326960FB6F894DD
:10075000DEBF0FBECDBFCF91DF91089563E040E0D3
:100760000E948503089570E0660F771F21E030E056
:10077000A901062E02C0440F551F0A94E2F76F5FCD
:100780007F4F02C0220F331F6A95E2F7422B039678
:1007900063E00E9485030895D398D498089529B3FF
:1007A00030E002C0359527958A95E2F781E020FD7B
:1007B00080E00895CF93DF93EC01862F0E94CF0352
:1007C000882311F4188207C08881882319F481E0F6
:1007D000888301C080E0DF91CF910895CF93DF93AC
:1007E000EC01862F0E94CF03882329F48881813071
:1007F00021F4188203C081E0888380E0DF91CF91EB
:100800000895EF92FF921F93DF93CF930F92CDB78E
:10081000DEB77C01862F109172001F5F109372006B
:1008200049830E94CF034981813099F4842F0E942B
:10083000CF03813071F4F7019081992321F48083F3
:100840001092720009C01E3730F01092720081E0E1
:1008500003C0F701108280E00F90CF91DF911F91CC
:10086000FF90EF9008951F9384EF90E063E044E0E1
:100870000E940104813091F085EF90E063E00E94D6
:10088000EE03182F86EF90E064E00E94EE038823C9
:1008900039F481E0112329F480E003C083E001C032
:1008A00082E01F91089518BA88EB87BB81E58DB966
:1008B0001EB808958FB9779BFECF8FB10895DF934F
:1008C000CF930F92CDB7DEB7C49869830E945A04C4
:1008D0008093FE006981862F0E945A04C49A0F906B
:1008E000CF91DF910895C4980E945A048093FE002E
:1008F00080E00E945A04C49A0895EF92FF920F93E9
:100900001F93DF93CF930F92CDB7DEB7162F042F2F
:10091000C49879830E945A047981412F572F7A0114
:1009200006C080E00E945A04F70181937F018E2D5A
:10093000811B8017B0F3C49A0F90CF91DF911F9164
:100940000F91FF90EF900895EF92FF920F931F93F6
:10095000DF93CF930F92CDB7DEB7162F042FC49835
:1009600079830E945A048093FE007981412F572F8A
:100970007A0105C0F70181917F010E945A048E2DF2
:10098000811B8017B8F3C49A0F90CF91DF911F910C
:100990000F91FF90EF90089582EE60E00E945F0457
:1009A00087E00E947304682F87E20E945F04C39867
:1009B00080E00E947304682F616080E20E945F04FF
:1009C000C39A089581EE60E00E945F04C39880E0BE
:1009D0000E947304682F6E7F80E20E945F04C39AB6
:1009E00008951F93182F87E00E94730487FF03C0A8
:1009F000112319F006C0112321F080E563E50E9460
:100A00005F041F910895682F85E20E945F04089596
:100A1000CF92DF92EF92FF920F931F93DF93CF93CA
:100A2000CDB7DEB72D970FB6F894DEBF0FBECDBFA2
:100A30008FE493EC0197F1F700C0000080E00E9482
:100A4000F10406EB10E0F8018081806261810E9470
:100A50005F040E5F1F4FF0E00E3D1F07A1F734E368
:100A6000C32EC98223E4D22EDA8290E1E92EEB82F2
:100A7000EC82FF24F394FD828AE28E010F5F1F4F08
:100A8000B80145E00E94A40489E3898388E38A834E
:100A900087E38B8386E38C8382EC8D838BE2B801C2
:100AA00045E00E94A404C982DA82EB82EC82FD82D6
:100AB00080E3B80145E00E94A4048DE10E94730424
:100AC000882321F480E563E70E945F048DE367E0FB
:100AD0000E945F048CE36FE30E945F0481E00E9448
:100AE000F10403E710E090E07E010894E11CF11CA2
:100AF000F80121913191419151918F0129833A83DC
:100B00004B835C83892F8062B70144E09D870E94FC
:100B1000A4049D859F5F993059F787E9E82E80E00E
:100B2000F82E8E010F5F1F4FF701219131914191F6
:100B300051917F0159834A833B832C83892F8062A3
:100B4000B80144E09D870E94A4049D859F5F9E306C
:100B500059F7EBEAF0E0D80181918D9380E0E63B14
:100B6000F807D1F78EE28E010F5F1F4FB8014BE0FF
:100B70000E94A40486E98A8382E88B838BE18C83BC
:100B80008FED898384E2B80144E00E94A404898146
:100B9000897F898384E2B80144E00E94A404E3EDE4
:100BA000F0E33197F1F700C0000080E00E94F1040B
:100BB0000E94CC042D960FB6F894DEBF0FBECDBFB9
:100BC000CF91DF911F910F91FF90EF90DF90CF9029
:100BD0000895EF92FF921F93DF93CF930F92CDB7BB
:100BE000DEB7182F7B0149830E94E20487E10E944F
:100BF0007304498185FD0AC0812FB7010E94A404B6
:100C000087EA91E60197F1F700C0000080E00F90BD
:100C1000CF91DF911F91FF90EF9008950F931F9355
:100C2000CF93DF93EC0187E00E947304082F86FFC7
:100C300016C080E60E947304182F813230F481E6DA
:100C4000BE01412F0E947D0404C082EE60E00E943C
:100C50005F0487E10E94730480FFEBCF01C010E0C6
:100C600087E2602F0E945F04812FDF91CF911F9157
:100C70000F910895991B79E004C0991F961708F009
:100C8000961B881F7A95C9F780950895AA1BBB1BF0
:100C900051E107C0AA1FBB1FA617B70710F0A61B7C
:100CA000B70B881F991F5A95A9F780959095BC019D
:100CB000CD010895DC01CB01FC01E199FECF06C016
:100CC000FFBBEEBBE09A31960DB20D924150504001
:100CD000B8F70895DC01CB0103C02D910E94750681
:100CE00041505040D0F70895262FE199FECF9FBB89
:100CF0008EBB2DBB0FB6F894E29AE19A0FBE019617
:060D00000895F894FFCFF6
:100D0600050403020100FA227C76A6D6DE62FEF610
:100D1600A6007E404B01E2C04B0000D0FC8C02993D
:100D2600003941D996821B24027FA60000000000EC
:100D360000000000000000000000000000000000AD
:100D4600000000007312000080B4464120080481B0
:100D560020CFF7FEFFFF000F013F023F030304FF12
:100D6600053306270707080009000CC30DC40EC586
:100D76000FC611201220132014201520162017004C
:0E0D86001C3F1D07344310100139383736C2A8
:00000001FF
