:100000000C942A000C9447000C9447000C94470071
:100010000C946E000C9447000C9447000C9447001D
:100020000C9421010C9447000C9447000C94470059
:100030000C9447000C9447000C9447000C94470024
:100040000C9447000C9447000C9447000C94470014
:100050000C94470011241FBECFE5D4E0DEBFCDBF16
:1000600010E0A0E6B0E0E8E1F6E002C005900D92F5
:10007000A237B107D9F710E0A2E7B0E001C01D92A6
:10008000A938B107E1F70E9452010C940A030C94BD
:10009000000080E395E730E22BB323272BBBE3ED91
:1000A000F0E33197F1F700C000000197A9F7089538
:1000B00084E08EBD86EF9FEF9DBD8CBD89B78460C7
:1000C00089BF089589B78F7389BF88E082BD14BC4A
:1000D00085E085BD89B7806489BF08951F920F921E
:1000E0000FB60F9211242F933F934F935F936F930B
:1000F0007F938F939F93AF93BF93EF93FF93F89466
:100100008BB390E289278BBB809172009091730032
:1001100001969093730080937200809180008823F1
:1001200041F48AE790E00E946F01882311F00E9459
:1001300049007894FF91EF91BF91AF919F918F917A
:100140007F916F915F914F913F912F910F900FBED3
:100150000F901F9018958AE790E00E94780208950A
:100160001F930E94DB02182F813049F0813008F480
:1001700050C0823079F0833009F05EC02CC08AE72D
:1001800090E00E94A20110937500109273001092EB
:10019000720038C080917500882341F490918000EE
:1001A00081E0911180E08093800046C0109273003E
:1001B00010927200E0917400F0E0E658FF4F8381E6
:1001C000982F9F5F93838B3309F413828AE790E023
:1001D0000E94950117C080917500882329F48AE751
:1001E00090E00E94950128C0109273001092720056
:1001F00080917400982F9F5F90937400823011F467
:10020000109274008AE790E0609174000E947D0271
:1002100015C080917500813079F48AE790E0609193
:1002200074000E947D0280917200909173008B3067
:10023000910520F01092750080E001C081E01F91CF
:1002400008951F920F920FB60F9211242F933F9390
:100250004F935F936F937F938F939F93AF93BF93CE
:10026000EF93FF930E94B000882311F40E94AB002B
:1002700086EF9FEF9DBD8CBD84E08EBD89B7846005
:1002800089BFFF91EF91BF91AF919F918F917F9126
:100290006F915F914F913F912F910F900FBE0F90F3
:1002A0001F9018958AE790E061E041E028E00E9405
:1002B00065010E94FC020E94A6010E9496020E9413
:1002C00058000E9462007894FFCFFC0125832283AE
:1002D000448341836383608381E086830895FC01C6
:1002E0008281882331F49181992319F49081992393
:1002F000B1F0982F91509283882399F48BE38283F5
:100300009181292F21502183992359F48183808160
:10031000982F91509083882331F41082089581E0C2
:10032000089580E0089580E00895FC018381948120
:10033000258122839183808381E086830895FC0157
:100340001682089521E0FC01268308958FEF81BB7A
:1003500012BAE0E6F0E081E090E044B3DF019C01F6
:10036000019002C0220F331F0A94E2F7422B44BBD4
:1003700045B39C010C9002C0220F331F0A94E2F790
:100380002095242325BB20E0E636F20731F70895B7
:1003900062BB95B321E030E002C0220F331F8A9583
:1003A000E2F7922B95BB81E28A95F1F7000085B3C5
:1003B0002095282325BB08957F928F929F92AF921C
:1003C000BF92CF92DF92EF92FF920F931F93CF9342
:1003D000DF93762E30E6E32E30E0F32E082F192F30
:1003E000C0E0D0E0C42EDD24A22EBB2484EF882EF2
:1003F00081E0982E43C08C2F96010C2E02C03595BB
:1004000027950A94E2F7D801EC9120FF06C0F0E0AE
:10041000EA59FF4F6081616004C0F0E0EA59FF4F84
:100420006081F50102C0F595E7958A95E2F7E0FF56
:1004300005C080917600882309F460E08091700007
:10044000909171009C0121503040309371002093B5
:100450007000009759F4909271008092700081E0D2
:1004600090917600911180E080937600D7018D9174
:100470007D010E94C80121960F5F1F4FC71508F428
:10048000BACFDF91CF911F910F91FF90EF90DF9046
:10049000CF90BF90AF909F908F907F900895DF9303
:1004A000CF9300D000D000D0CDB7DEB7FC01242F11
:1004B00080813AE0632F0E94FE0289839A838181C2
:1004C0000E94FE028B839C8382810E94FE028D83A8
:1004D0009E83CE01019666E04AE00E94DC012696EA
:1004E0000FB6F894DEBF0FBECDBFCF91DF91089558
:1004F00063E040E00E944F02089570E0660F771FAE
:1005000021E030E0A901062E02C0440F551F0A94D5
:10051000E2F76F5F7F4F02C0220F331F6A95E2F749
:10052000422B039663E00E944F020895D398D4981B
:10053000089529B330E002C0359527958A95E2F7F2
:1005400081E020FD80E00895CF93DF93EC01862FBA
:100550000E949902882311F4188207C08881882399
:1005600019F481E0888301C080E0DF91CF91089584
:100570000F931F93DF93CF930F92CDB7DEB78C010C
:10058000862F49830E9499024981813059F4842F32
:100590000E949902813031F4F8019081992311F47D
:1005A000808303C0F801108280E00F90CF91DF912B
:1005B0001F910F9108951F9387E790E063E044E057
:1005C0000E94B802813089F088E790E063E00E94E1
:1005D000A402182F89E790E064E00E94A402882317
:1005E00031F4112331F083E005C081E003C082E0E3
:1005F00001C080E01F910895D59A0895991B79E074
:1006000004C0991F961708F0961B881F7A95C9F7A2
:0806100080950895F894FFCFD6
:10061800050403020100FA227C76A6D6DE62FEF605
:02062800F401DB
:00000001FF
