:100000000C942A000C9447000C9447000C94470071
:100010000C9455000C9447000C9447000C94470036
:100020000C9447000C9447000C9447000C94470034
:100030000C9447000C9447000C9447000C94470024
:100040000C9447000C9447000C9447000C94470014
:100050000C94470011241FBECFE5D4E0DEBFCDBF16
:1000600010E0A0E6B0E0E6EBF3E002C005900D92F0
:10007000A437B107D9F710E0A4E7B0E001C01D92A2
:10008000A338B107E1F70E9491000C94D9010C94B8
:10009000000089B78F7389BF88E082BD14BC85E0FA
:1000A00085BD89B7806489BF08951F920F920FB6EE
:1000B0000F9211242F933F934F935F936F937F93EE
:1000C0008F939F93AF93BF93EF93FF93F8948BB36A
:1000D00090E289278BBB84E790E00E94AD008823E3
:1000E00071F080E395E730E22BB323272BBBE3EDE0
:1000F000F0E33197F1F700C000000197A9F7789479
:10010000FF91EF91BF91AF919F918F917F916F91EF
:100110005F914F913F912F910F900FBE0F901F90C5
:100120001895D59A84E790E061E041E028E00E94CC
:10013000A3000E94E0000E944900789484E790E0C8
:100140000E94AF01FBCFFC012583228344834183BE
:100150006383608381E086830895FC018281882324
:1001600031F49181992319F490819923B1F0982F5A
:1001700091509283882399F48BE382839181292F74
:1001800021502183992359F481838081982F9150A4
:100190009083882331F41082089581E0089580E0EF
:1001A000089580E00895FC01838194812581228354
:1001B0009183808381E086830895FC0116820895EF
:1001C0008FEF81BB12BAE0E6F0E081E090E044B34B
:1001D000DF019C01019002C0220F331F0A94E2F755
:1001E000422B44BB45B39C010C9002C0220F331F2D
:1001F0000A94E2F72095242325BB20E0E636F20797
:1002000031F7089562BB95B321E030E002C0220FC0
:10021000331F8A95E2F7922B95BB80E18A95F1F71F
:1002200000C085B32095282325BB08957F928F9227
:100230009F92AF92BF92CF92DF92EF92FF920F9375
:100240001F93CF93DF93762E30E6E32E30E0F32E2C
:10025000082F192FC0E0D0E0C42EDD24A22EBB242D
:100260008AE0882E912C41C08C2F96010C2E02C062
:10027000359527950A94E2F7D801EC9120FF06C046
:10028000F0E0EA59FF4F6081616004C0F0E0EA5994
:10029000FF4F6081F50102C0F595E7958A95E2F779
:1002A000E0FF05C0809172008F3009F460E080911A
:1002B000700090917100019790937100809370008D
:1002C000009759F4909271008092700081E09091B3
:1002D0007200911180E080937200D7018D917D01B1
:1002E0000E94020121960F5F1F4FC71508F4BCCF73
:1002F000DF91CF911F910F91FF90EF90DF90CF9002
:10030000BF90AF909F908F907F900895DF93CF9391
:1003100000D000D000D0CDB7DEB7FC01242F808103
:100320003AE0632F0E94CD0189839A8381810E94E4
:10033000CD018B839C8382810E94CD018D839E831E
:10034000CE01019666E04AE00E94160126960FB69D
:10035000F894DEBF0FBECDBFCF91DF91089563E06B
:1003600040E00E948601089570E0660F771F21E04B
:1003700030E0A901062E02C0440F551F0A94E2F78F
:100380006F5F7F4F02C0220F331F6A95E2F7422B47
:10039000039663E00E9486010895991B79E004C0EA
:1003A000991F961708F0961B881F7A95C9F78095B4
:0603B0000895F894FFCF50
:1003B600050403020100FA227C76A6D6DE62FEF66A
:0403C6000A00F00039
:00000001FF
