:100000000C942A000C9447000C9447000C94470071
:100010000C947B000C9447000C9447000C94470010
:100020000C9444010C9447000C9447000C94470036
:100030000C9447000C9447000C9447000C94470024
:100040000C9447000C9447000C9447000C94470014
:100050000C94470011241FBECFE5D4E0DEBFCDBF16
:1000600010E0A0E6B0E0E0E1FCE002C005900D92F7
:10007000AE3EB107D9F711E0AEEEB0E001C01D927F
:10008000A730B107E1F70E94CE010C9406060C944C
:100090000000D59ADD980895D69ADE980895D79AEB
:1000A000DF9ADD98DE9888E592E030E22BB32327D3
:1000B0002BBBE3EDF0E33197F1F700C000000197AF
:1000C000A9F7DF98DD98DE98089584E08EBD86EF6D
:1000D0009FEF9DBD8CBD89B7846089BF089589B7A6
:1000E0008F7389BF88E082BD14BC85E085BD89B768
:1000F000806489BF08951F920F920FB60F9211244A
:100100002F933F934F935F936F937F938F939F931F
:10011000AF93BF93EF93FF938091F200882341F553
:10012000F8948091EE009091EF0001969093EF008B
:100130008093EE008091FD008823C9F487EF90E062
:100140000E944B02813041F0833049F40E944F00FD
:1001500081E08093F2000CC0DD9ADE9A08C08BB378
:1001600090E289278BBB8BB390E489278BBB789473
:10017000FF91EF91BF91AF919F918F917F916F917F
:100180005F914F913F912F910F900FBE0F901F9055
:10019000189587EF90E00E947B0308951F9380914C
:1001A000FD00882309F46BC00E94DE03182F813004
:1001B00049F0813008F450C0823079F0833009F082
:1001C0005EC02CC087EF90E00E9488021093F1007F
:1001D0001092EF001092EE0038C08091F100882359
:1001E00041F49091FD0081E0911180E08093FD0049
:1001F00046C01092EF001092EE00E091F000F0E0A7
:10020000E950FF4F8381982F9F5F93838B3309F4CD
:10021000138287EF90E00E947B0217C08091F1006B
:10022000882329F487EF90E00E947B0228C0109277
:10023000EF001092EE008091F000982F9F5F909356
:10024000F000823011F41092F00087EF90E060919E
:10025000F0000E94800315C08091F100813079F494
:1002600087EF90E06091F0000E9480038091EE00A3
:100270009091EF008B30910520F01092F10080E01A
:1002800001C081E01F9108951F920F920FB60F9247
:1002900011242F933F934F935F936F937F938F938B
:1002A0009F93AF93BF93EF93FF930E94CE00882359
:1002B00011F40E94C90086EF9FEF9DBD8CBD84E0C4
:1002C0008EBD89B7846089BFFF91EF91BF91AF91D7
:1002D0009F918F917F916F915F914F913F912F915E
:1002E0000F900FBE0F901F901895AF92BF92CF92B4
:1002F000DF92EF92FF920F931F93DF93CF9300D083
:1003000000D000D0CDB7DEB719821A821B821C82C2
:100310001D821E826CE070E00E94F2055B01EE24FB
:10032000FF248E010F5F1F4F8E2D869590E0F80100
:10033000E80FF91F3081E0FE02C02AEA01C022E284
:10034000800F911F232BFC012083CC24DD24CA14B1
:10035000DB0460F4C80166E00E94C102C80166E0E7
:100360000E94C1020894C11CD11CF1CF0894E11C69
:10037000F11CFCE0EF16F104B9F626960FB6F894DE
:10038000DEBF0FBECDBFCF91DF911F910F91FF90C8
:10039000EF90DF90CF90BF90AF900895EF92FF92D3
:1003A0000F931F93DF93CF93CDB7DEB7A7970FB609
:1003B000F894DEBF0FBECDBF0E94FF030E94B404BD
:1003C0000E9478040E9449000E944C000E948C0206
:1003D0000E94990388EB9BE00E94750187EF90E0F3
:1003E00060E04CE027E10E9441020E9465000E940B
:1003F0006F00789419821A821B821C821D821E82D1
:1004000020E07E010894E11CF11C8E01095F1F4F62
:10041000223310F42F5F20C0F70180E09191890F03
:10042000E017F107D9F7893028F087EF90E00E94B4
:10043000850206C0833020F487EF90E00E94880296
:100440008A8189838B818A838C818B838D818C8344
:100450008E818D831E8220E0C80160E22FA30E945E
:10046000BA052FA1882331F08885823019F48E8156
:100470008F5F8E8383EC99E00197F1F700C0000055
:10048000C7CFFC0125832283448341836383608338
:1004900081E086830895FC018281882331F4918173
:1004A000992319F49081992301F1982F9150928307
:1004B000882381F48BE382839181292F215021832A
:1004C000992341F481838081982F915090838823D0
:1004D00009F4108282818B3050F48181882349F4A1
:1004E00081E09081992331F002C083E0089580E09B
:1004F000089580E00895FC01838194812581228301
:100500009183808381E086830895FC01168208959B
:1005100021E0FC01268308958FEF81BB12BAE0E64B
:10052000F0E081E090E044B3DF019C01019002C063
:10053000220F331F0A94E2F7422B44BB45B39C01C0
:100540000C9002C0220F331F0A94E2F72095242357
:1005500025BB20E0E636F20731F7089562BB95B37C
:1005600021E030E002C0220F331F8A95E2F7922B80
:1005700095BB84E68A95F1F785B32095282325BBA2
:100580000895EF92FF920F931F93CF93DF93062F5F
:10059000673008F006E0E82EE7017E01F92EE7015A
:1005A00010E005C06991812F0E94AE021F5F1017F5
:1005B000C8F3DF91CF911F910F91FF90EF900895B5
:1005C0007F928F929F92AF92BF92CF92DF92EF92E3
:1005D000FF920F931F93CF93DF93762E30E6E32E97
:1005E00030E0F32E082F192FC0E0D0E0C42EDD2418
:1005F000A22EBB2486EA882E912C43C08C2F960114
:100600000C2E02C0359527950A94E2F7D801EC919B
:1006100020FF06C0F0E0EA59FF4F6081616004C02E
:10062000F0E0EA59FF4F6081F50102C0F595E795CA
:100630008A95E2F7E0FF05C08091F300882309F472
:1006400060E080917000909171009C0121503040D9
:100650003093710020937000009759F490927100CC
:100660008092700081E09091F300911180E080937E
:10067000F300D7018D917D010E94AE0221960F5F9C
:100680001F4FC71508F4BACFDF91CF911F910F917B
:10069000FF90EF90DF90CF90BF90AF909F908F90A2
:1006A0007F900895DF93CF9300D000D000D0CDB7D6
:1006B000DEB7FC01242F80813AE0632F0E94E6051B
:1006C00089839A8381810E94E6058B839C83828142
:1006D0000E94E6058D839E83CE01019666E04AE086
:1006E0000E94E00226960FB6F894DEBF0FBECDBF83
:1006F000CF91DF91089563E040E00E945203089596
:1007000070E0660F771F21E030E0A901062E02C0DD
:10071000440F551F0A94E2F76F5F7F4F02C0220F0C
:10072000331F6A95E2F7422B039663E00E9452035F
:100730000895D398D498089529B330E002C0359530
:1007400027958A95E2F781E020FD80E00895CF9318
:10075000DF93EC01862F0E949C03882311F41882FA
:1007600007C08881882319F481E0888301C080E074
:10077000DF91CF9108950F931F93DF93CF930F9243
:10078000CDB7DEB78C01862F49830E949C03498137
:10079000813059F4842F0E949C03813031F4F80198
:1007A0009081992311F4808303C0F801108280E0C6
:1007B0000F90CF91DF911F910F9108951F9384EFB8
:1007C00090E063E044E00E94BB03813089F085EF54
:1007D00090E063E00E94A703182F86EF90E064E0AA
:1007E0000E94A703882331F4112331F083E005C070
:1007F00081E003C082E001C080E01F91089518BA33
:1008000088EB87BB81E58DB91EB808958FB9779BBA
:10081000FECF8FB10895DF93CF930F92CDB7DEB7A0
:10082000C49869830E940604809306016981862F1B
:100830000E940604C49A0F90CF91DF910895C49846
:100840000E9406048093060180E00E940604C49A78
:100850000895EF92FF920F931F93DF93CF930F9220
:10086000CDB7DEB7162F042FC49879830E940604F3
:100870007981412F572F7A0106C080E00E9406043B
:10088000F70181937F018E2D811B8017B0F3C49AED
:100890000F90CF91DF911F910F91FF90EF900895EE
:1008A000EF92FF920F931F93DF93CF930F92CDB7E9
:1008B000DEB7162F042FC49879830E940604809314
:1008C00006017981412F572F7A0105C0F7018191E7
:1008D0007F010E9406048E2D811B8017B8F3C49AF5
:1008E0000F90CF91DF911F910F91FF90EF9008959E
:1008F00082EE60E00E940B0487E00E941F04682FD4
:1009000087E20E940B04C39880E00E941F04682FB6
:10091000616080E20E940B04C39A089581EE60E05A
:100920000E940B04C39880E00E941F04682F6E7F12
:1009300080E20E940B04C39A08951F93182F87E04A
:100940000E941F0487FF03C0112319F006C0112362
:1009500021F080E563E50E940B041F910895682F44
:1009600085E20E940B040895CF92DF92EF92FF92EE
:100970000F931F93DF93CF93CDB7DEB72D970FB6AD
:10098000F894DEBF0FBECDBF8FE493EC0197F1F773
:1009900000C0000080E00E949D0405EB10E0F8011B
:1009A0008081806261810E940B040E5F1F4FF0E026
:1009B0000D3D1F07A1F734E3C32EC98223E4D22ED5
:1009C000DA8290E1E92EEB82EC82FF24F394FD823F
:1009D0008AE28E010F5F1F4FB80145E00E9450046C
:1009E00089E3898388E38A8387E38B8386E38C8327
:1009F00082EC8D838BE2B80145E00E945004C982ED
:100A0000DA82EB82EC82FD8280E3B80145E00E944D
:100A100050048DE10E941F04882321F480E563E7E0
:100A20000E940B048DE367E00E940B048CE36FE3EC
:100A30000E940B0481E00E949D0402E710E090E018
:100A40007E010894E11CF11CF80121913191419142
:100A500051918F0129833A834B835C83892F806274
:100A6000B70144E09D870E9450049D859F5F9930A7
:100A700059F786E9E82E80E0F82E8E010F5F1F4FB0
:100A8000F70121913191419151917F0159834A831D
:100A90003B832C83892F8062B80144E09D870E94AC
:100AA00050049D859F5F9E3059F7EAEAF0E0D80137
:100AB00081918D9380E0E53BF807D1F78EE28E01BE
:100AC0000F5F1F4FB8014BE00E94500486E98A83F4
:100AD00082E88B838BE18C838FED898384E2B8017C
:100AE00044E00E9450048981897F898384E2B801AF
:100AF00044E00E945004E3EDF0E33197F1F700C0C9
:100B0000000080E00E949D040E9478042D960FB69C
:100B1000F894DEBF0FBECDBFCF91DF911F910F9133
:100B2000FF90EF90DF90CF900895EF92FF921F9388
:100B3000DF93CF930F92CDB7DEB7182F7B01498398
:100B40000E948E0487E10E941F04498185FD0AC02E
:100B5000812FB7010E94500487EA91E60197F1F7CF
:100B600000C0000080E00F90CF91DF911F91FF90B7
:100B7000EF9008950F931F93CF93DF93EC0187E0DD
:100B80000E941F04082F86FF16C080E60E941F04E3
:100B9000182F813230F481E6BE01412F0E942904D2
:100BA00004C082EE60E00E940B0487E10E941F04F3
:100BB00080FFEBCF01C010E087E2602F0E940B04A2
:100BC000812FDF91CF911F910F910895991B79E0AB
:100BD00004C0991F961708F0961B881F7A95C9F7CD
:100BE00080950895AA1BBB1B51E107C0AA1FBB1F1C
:100BF000A617B70710F0A61BB70B881F991F5A95A9
:100C0000A9F780959095BC01CD010895F894FFCF88
:100C1000050403020100FA227C76A6D6DE62FEF607
:100C2000A600404B01E2C04B0000D0FC8C029900B2
:100C30003941D996821B24027FA6000000000000E3
:100C400000000000000000000000000000000000A4
:100C50000000007312000080B44641200804812087
:100C6000CFF7FEFFFF000F013F023F030304FF0524
:100C70003306270707080009000CC30DC40EC50F73
:100C8000C611201220132014201520162017001C36
:0E0C90003F1D07344310100139383736C200BB
:00000001FF
