:100000000C942A000C9447000C9447000C94470071
:100010000C946E000C9447000C9447000C9447001D
:100020000C941D010C9447000C9447000C9447005D
:100030000C9447000C9447000C9447000C94470024
:100040000C9447000C9447000C9447000C94470014
:100050000C94470011241FBECFE5D4E0DEBFCDBF16
:1000600010E0A0E6B0E0EAEBFBE002C005900D92E4
:10007000AE3EB107D9F711E0AEEEB0E001C01D927F
:10008000A630B107E1F70E94A7010C94DB050C94A0
:10009000000080E395E730E22BB323272BBBE3ED91
:1000A000F0E33197F1F700C000000197A9F7089538
:1000B00084E08EBD86EF9FEF9DBD8CBD89B78460C7
:1000C00089BF089589B78F7389BF88E082BD14BC4A
:1000D00085E085BD89B7806489BF08951F920F921E
:1000E0000FB60F9211242F933F934F935F936F930B
:1000F0007F938F939F93AF93BF93EF93FF93F89466
:100100008091EE009091EF0001969093EF00809324
:10011000EE008091FC00882341F486EF90E00E947D
:100120002602882311F00E9449007894FF91EF91F4
:10013000BF91AF919F918F917F916F915F914F91FF
:100140003F912F910F900FBE0F901F90189586EF43
:1001500090E00E944E0308951F930E94B103182F50
:10016000813049F0813008F450C0823079F083301A
:1001700009F05EC02CC086EF90E00E9459021093F7
:10018000F1001092EF001092EE0038C08091F10063
:10019000882341F49091FC0081E0911180E08093EC
:1001A000FC0046C01092EF001092EE00E091F000CB
:1001B000F0E0EA50FF4F8381982F9F5F93838B334A
:1001C00009F4138286EF90E00E944C0217C08091E0
:1001D000F100882329F486EF90E00E944C0228C0A9
:1001E0001092EF001092EE008091F000982F9F5F28
:1001F0009093F000823011F41092F00086EF90E0BE
:100200006091F0000E94530315C08091F10081308D
:1002100079F486EF90E06091F0000E9453038091A2
:10022000EE009091EF008B30910520F01092F100DC
:1002300080E001C081E01F9108951F920F920FB6D8
:100240000F9211242F933F934F935F936F937F935C
:100250008F939F93AF93BF93EF93FF930E94AC0054
:10026000882311F40E94A70086EF9FEF9DBD8CBDEF
:1002700084E08EBD89B7846089BFFF91EF91BF9103
:10028000AF919F918F917F916F915F914F913F912E
:100290002F910F900FBE0F901F901895AF92BF92A5
:1002A000CF92DF92EF92FF920F931F93DF93CF9342
:1002B00000D000D000D0CDB7DEB719821A821B82E1
:1002C0001C821D821E826CE070E00E94C7055B01EB
:1002D000EE24FF248E010F5F1F4F8E2D869590E038
:1002E000F801E80FF91F3081E0FE02C02AEA01C0E0
:1002F00022E2800F911F232BFC012083CC24DD24DC
:10030000CA14DB0460F4C80166E00E949302C801CD
:1003100066E00E9493020894C11CD11CF1CF08949E
:10032000E11CF11CFCE0EF16F104B9F626960FB6BD
:10033000F894DEBF0FBECDBFCF91DF911F910F911B
:10034000FF90EF90DF90CF90BF90AF900895EF9225
:10035000FF920F931F93DF93CF93CDB7DEB7A7978D
:100360000FB6F894DEBF0FBECDBF0E94D4030E942B
:1003700089040E944D040E94D2030E945D020E94E3
:100380006C0380ED97E00E944E0186EF90E061E003
:1003900047E12DE20E941C020E9458000E94620068
:1003A000789419821A821B821C821D821E8220E090
:1003B0007E010894E11CF11C8E01095F1F4F22335E
:1003C00010F42F5F20C0F70180E09191890FE017B2
:1003D000F107D9F7893028F086EF90E00E945602A5
:1003E00006C0833020F486EF90E00E9459028A8193
:1003F00089838B818A838C818B838D818C838E8191
:100400008D831E8220E0C80160E22FA30E948F0529
:100410002FA1882351F08885823039F48BB390E284
:1004200089278BBB8E818F5F8E8383EC99E0019748
:10043000F1F700C00000C3CFFC0125832283448371
:1004400041836383608381E086830895FC01828118
:10045000882331F49181992319F490819923B1F083
:10046000982F91509283882399F48BE38283918112
:10047000292F21502183992359F481838081982F3A
:1004800091509083882331F41082089581E008957B
:1004900080E0089580E00895FC01838194812581A6
:1004A00022839183808381E086830895FC011682F4
:1004B000089521E0FC01268308958FEF81BB12BAD5
:1004C000E0E6F0E081E090E044B3DF019C010190C0
:1004D00002C0220F331F0A94E2F7422B44BB45B3FC
:1004E0009C010C9002C0220F331F0A94E2F7209562
:1004F000242325BB20E0E636F20731F7089562BBDE
:1005000095B321E030E002C0220F331F8A95E2F755
:10051000922B95BB81E28A95F1F7000085B3209577
:10052000282325BB0895EF92FF920F931F93CF933B
:10053000DF93062F673008F006E0E82EE7017E0122
:10054000F92EE70110E005C06991812F0E947F021A
:100550001F5F1017C8F3DF91CF911F910F91FF908C
:10056000EF9008957F928F929F92AF92BF92CF9219
:10057000DF92EF92FF920F931F93CF93DF93762E2C
:1005800030E6E32E30E0F32E082F192FC0E0D0E044
:10059000C42EDD24A22EBB2484EF882E81E0982E69
:1005A00043C08C2F96010C2E02C0359527950A94D6
:1005B000E2F7D801EC9120FF06C0F0E0EA59FF4FC6
:1005C0006081616004C0F0E0EA59FF4F6081F5018D
:1005D00002C0F595E7958A95E2F7E0FF05C08091A6
:1005E000F200882309F460E080917000909171001E
:1005F0009C0121503040309371002093700000978F
:1006000059F4909271008092700081E09091F20014
:10061000911180E08093F200D7018D917D010E94BD
:100620007F0221960F5F1F4FC71508F4BACFDF91E5
:10063000CF911F910F91FF90EF90DF90CF90BF90DF
:10064000AF909F908F907F900895DF93CF9300D0CD
:1006500000D000D0CDB7DEB7FC01242F80813AE076
:10066000632F0E94BB0589839A8381810E94BB0509
:100670008B839C8382810E94BB058D839E83CE01E8
:10068000019666E04AE00E94B20226960FB6F89400
:10069000DEBF0FBECDBFCF91DF91089563E040E094
:1006A0000E942503089570E0660F771F21E030E077
:1006B000A901062E02C0440F551F0A94E2F76F5F8E
:1006C0007F4F02C0220F331F6A95E2F7422B039639
:1006D00063E00E9425030895D398D498089529B320
:1006E00030E002C0359527958A95E2F781E020FD3C
:1006F00080E00895CF93DF93EC01862F0E946F0373
:10070000882311F4188207C08881882319F481E0B6
:10071000888301C080E0DF91CF9108950F931F93EC
:10072000DF93CF930F92CDB7DEB78C01862F49832D
:100730000E946F034981813059F4842F0E946F0316
:10074000813031F4F8019081992311F4808303C042
:10075000F801108280E00F90CF91DF911F910F91EF
:1007600008951F9383EF90E063E044E00E948E03BE
:10077000813089F084EF90E063E00E947A03182FC3
:1007800085EF90E064E00E947A03882331F411231E
:1007900031F083E005C081E003C082E001C080E069
:1007A0001F910895D59A089518BA88EB87BB81E503
:1007B0008DB91EB808958FB9779BFECF8FB108957C
:1007C000DF93CF930F92CDB7DEB7C49869830E94B1
:1007D000DB03809305016981862F0E94DB03C49AA5
:1007E0000F90CF91DF910895C4980E94DB0380930E
:1007F000050180E00E94DB03C49A0895EF92FF9206
:100800000F931F93DF93CF930F92CDB7DEB7162FC1
:10081000042FC49879830E94DB037981412F572FDD
:100820007A0106C080E00E94DB03F70181937F011B
:100830008E2D811B8017B0F3C49A0F90CF91DF915A
:100840001F910F91FF90EF900895EF92FF920F93F9
:100850001F93DF93CF930F92CDB7DEB7162F042FE0
:10086000C49879830E94DB03809305017981412F2D
:10087000572F7A0105C0F70181917F010E94DB03A8
:100880008E2D811B8017B8F3C49A0F90CF91DF9102
:100890001F910F91FF90EF90089582EE60E00E940B
:1008A000E00387E00E94F403682F87E20E94E003E0
:1008B000C39880E00E94F403682F616080E20E9488
:1008C000E003C39A089581EE60E00E94E003C398BC
:1008D00080E00E94F403682F6E7F80E20E94E003B4
:1008E000C39A08951F93182F87E00E94F40387FF8F
:1008F00003C0112319F006C0112321F080E563E540
:100900000E94E0031F910895682F85E20E94E00392
:100910000895CF92DF92EF92FF920F931F93DF9390
:10092000CF93CDB7DEB72D970FB6F894DEBF0FBECD
:10093000CDBF8FE493EC0197F1F700C0000080E099
:100940000E94720405EB10E0F801808180626181F1
:100950000E94E0030E5F1F4FF0E00D3D1F07A1F75F
:1009600034E3C32EC98223E4D22EDA8290E1E92E49
:10097000EB82EC82FF24F394FD828AE28E010F5F0A
:100980001F4FB80145E00E94250489E3898388E36D
:100990008A8387E38B8386E38C8382EC8D838BE26F
:1009A000B80145E00E942504C982DA82EB82EC821C
:1009B000FD8280E3B80145E00E9425048DE10E949C
:1009C000F403882321F480E563E70E94E0038DE3CC
:1009D00067E00E94E0038CE36FE30E94E00381E0A4
:1009E0000E94720402E710E090E07E010894E11C8E
:1009F000F11CF80121913191419151918F0129838D
:100A00003A834B835C83892F8062B70144E09D87E2
:100A10000E9425049D859F5F993059F786E9E82E4D
:100A200080E0F82E8E010F5F1F4FF7012191319169
:100A3000419151917F0159834A833B832C83892FB4
:100A40008062B80144E09D870E9425049D859F5FD8
:100A50009E3059F7EAEAF0E0D80181918D9380E069
:100A6000E53BF807D1F78EE28E010F5F1F4FB8010B
:100A70004BE00E94250486E98A8382E88B838BE120
:100A80008C838FED898384E2B80144E00E942504C1
:100A90008981897F898384E2B80144E00E9425042A
:100AA000E3EDF0E33197F1F700C0000080E00E9431
:100AB00072040E944D042D960FB6F894DEBF0FBE4F
:100AC000CDBFCF91DF911F910F91FF90EF90DF90FD
:100AD000CF900895EF92FF921F93DF93CF930F92E1
:100AE000CDB7DEB7182F7B0149830E94630487E1ED
:100AF0000E94F403498185FD0AC0812FB7010E943D
:100B0000250487EA91E60197F1F700C0000080E034
:100B10000F90CF91DF911F91FF90EF9008950F9369
:100B20001F93CF93DF93EC0187E00E94F403082F1B
:100B300086FF16C080E60E94F403182F813230F43D
:100B400081E6BE01412F0E94FE0304C082EE60E0F8
:100B50000E94E00387E10E94F40380FFEBCF01C015
:100B600010E087E2602F0E94E003812FDF91CF9198
:100B70001F910F910895991B79E004C0991F961752
:100B800008F0961B881F7A95C9F780950895AA1BCF
:100B9000BB1B51E107C0AA1FBB1FA617B70710F068
:100BA000A61BB70B881F991F5A95A9F7809590959A
:0A0BB000BC01CD010895F894FFCFB9
:100BBA00050403020100FA227C76A6D6DE62FEF65E
:100BCA00F401404B01E2C04B0000D0FC8C029900BA
:100BDA003941D996821B24027FA60000000000003A
:100BEA0000000000000000000000000000000000FB
:100BFA000000007312000080B446412008048120DE
:100C0A00CFF7FEFFFF000F013F023F030304FF057A
:100C1A003306270707080009000CC30DC40EC50FC9
:100C2A00C611201220132014201520162017001C8C
:0E0C3A003F1D07344310100139383736C20011
:00000001FF
