:100000000C942A000C9447000C9447000C94470071
:100010000C9455000C9447000C9447000C94470036
:100020000C9447000C9447000C9447000C94470034
:100030000C9447000C9447000C9447000C94470024
:100040000C9447000C9447000C9447000C94470014
:100050000C94470011241FBECFE5D4E0DEBFCDBF16
:1000600010E0A0E6B0E0EEE6F3E002C005900D92ED
:10007000A237B107D9F710E0A2E7B0E001C01D92A6
:10008000A238B107E1F70E9469000C94B5010C9405
:10009000000089B78F7389BF88E082BD14BC85E0FA
:1000A00085BD89B7806489BF08951F920F920FB6EE
:1000B0000F9211248F939F93F8948BB390E289272A
:1000C0008BBB78949F918F910F900FBE0F901F90D4
:1000D0001895D59A83E790E061E041E028E00E941E
:1000E0007C000E94B9000E944900789483E790E068
:1000F00060E00E949001FACFFC01258322834483B3
:1001000041836383608381E086830895FC0182815B
:10011000882331F49181992319F490819923B1F0C6
:10012000982F91509283882399F48BE38283918155
:10013000292F21502183992359F481838081982F7D
:1001400091509083882331F41082089581E00895BE
:1001500080E0089580E00895FC01838194812581E9
:1001600022839183808381E086830895FC01168237
:1001700008958FEF81BB12BAE0E6F0E081E090E0F5
:1001800044B3DF019C01019002C0220F331F0A9487
:10019000E2F7422B44BB45B39C010C9002C0220FF6
:1001A000331F0A94E2F72095242325BB20E0E6368E
:1001B000F20731F7089562BB95B321E030E002C049
:1001C000220F331F8A95E2F7922B95BB86EA8A9518
:1001D000F1F700C085B32095282325BB08957F92B1
:1001E0008F929F92AF92BF92CF92DF92EF92FF9247
:1001F0000F931F93CF93DF93762E30E6E32E30E0FC
:10020000F32E082F192FC0E0D0E0C42EDD24A22E3B
:10021000BB2488EE882E83E0982E43C08C2F960155
:100220000C2E02C0359527950A94E2F7D801EC917F
:1002300020FF06C0F0E0EA59FF4F6081616004C012
:10024000F0E0EA59FF4F6081F50102C0F595E795AE
:100250008A95E2F7E0FF05C080917200882309F4D7
:1002600060E080917000909171009C0121503040BD
:100270003093710020937000009759F490927100B0
:100280008092700081E090917200911180E08093E3
:100290007200D7018D917D010E94DB0021960F5FD6
:1002A0001F4FC71508F4BACFDF91CF911F910F915F
:1002B000FF90EF90DF90CF90BF90AF909F908F9086
:1002C0007F900895DF93CF9300D000D000D0CDB7BA
:1002D000DEB7FC01242F80813AE0632F0E94A90140
:1002E00089839A8381810E94A9018B839C83828167
:1002F0000E94A9018D839E83CE01019666E04AE0AB
:100300000E94EF0026960FB6F894DEBF0FBECDBF59
:10031000CF91DF91089563E040E00E94620108956B
:1003200070E0660F771F21E030E0A901062E02C0C1
:10033000440F551F0A94E2F76F5F7F4F02C0220FF0
:10034000331F6A95E2F7422B039663E00E94620135
:100350000895991B79E004C0991F961708F0961B21
:0E036000881F7A95C9F780950895F894FFCF0D
:10036E00050403020100FA227C76A6D6DE62FEF6B2
:02037E00E80392
:00000001FF
