:100000000C942A000C9447000C9447000C94470071
:100010000C9455000C9447000C9447000C94470036
:100020000C9447000C9447000C9447000C94470034
:100030000C9447000C9447000C9447000C94470024
:100040000C9447000C9447000C9447000C94470014
:100050000C94470011241FBECFE5D4E0DEBFCDBF16
:1000600010E0A0E6B0E0E8E7F4E002C005900D92F1
:10007000A437B107D9F710E0A4E7B0E001C01D92A2
:10008000A738B107E1F70E9469000C943A020C947A
:10009000000089B78F7389BF88E082BD14BC85E0FA
:1000A00085BD89B7806489BF08951F920F920FB6EE
:1000B0000F9211248F939F93F8948BB390E289272A
:1000C0008BBB78949F918F910F900FBE0F901F90D4
:1000D0001895D59A84E790E06CE042E228E30E940C
:1000E0007B000E941F010E944900789484E790E001
:1000F0000E94EE01FBCFFC012583228344834183D0
:10010000638360838CE3489FA0011124420F511D3B
:1001100070E020E13EE0629FC001639F900D729FFE
:10012000900D1124480F591F662757FD6095762FB3
:10013000468357836087718781E0828708958F9215
:100140009F92AF92BF92DF92EF92FF920F931F9315
:10015000CF93DF93EC01EE80FF800885198508942A
:10016000E108F10801091109EE82FF820887198769
:10017000C801B70120E13EE040E050E00E941802D3
:10018000D22E28838CE3882E912CA12CB12CC8016F
:10019000B701A50194010E9418026A834D2D50E019
:1001A00020E13EE0429FC001439F900D529F900D81
:1001B0001124AA2797FDA095BA2FA8019701281B03
:1001C000390B4A0B5B0BCA01B901A50194010E94CE
:1001D00018022983B701C801DF91CF911F910F91B8
:1001E000FF90EF90DF90BF90AF909F908F90089519
:1001F000FC0163818481A581A2838183608370E097
:1002000040E15EE0649F9001659F300D749F300D6A
:1002100011249CE3899FC0011124280F391F2A0F44
:10022000311D442737FD4095542F2683378340875F
:10023000518781E082870895FC01128608958FEF2F
:1002400081BB12BAE0E6F0E081E090E044B3DF0168
:100250009C01019002C0220F331F0A94E2F7422B47
:1002600044BB45B39C010C9002C0220F331F0A947B
:10027000E2F72095242325BB20E0E636F20731F78C
:10028000089562BB95B321E030E002C0220F331F16
:100290008A95E2F7922B95BB80E18A95F1F700C031
:1002A00085B32095282325BB08957F928F929F9236
:1002B000AF92BF92CF92DF92EF92FF920F931F9374
:1002C000CF93DF93762E30E6E32E30E0F32E082F27
:1002D000192FC0E0D0E0C42EDD24A22EBB248AE07A
:1002E000882E912C41C08C2F96010C2E02C0359582
:1002F00027950A94E2F7D801EC9120FF06C0F0E0C0
:10030000EA59FF4F6081616004C0F0E0EA59FF4F95
:100310006081F50102C0F595E7958A95E2F7E0FF67
:1003200005C0809172008F3009F460E08091700008
:1003300090917100019790937100809370000097E5
:1003400059F4909271008092700081E09091720057
:10035000911180E080937200D7018D917D010E9400
:10036000410121960F5F1F4FC71508F4BCCFDF91E5
:10037000CF911F910F91FF90EF90DF90CF90BF90A2
:10038000AF909F908F907F900895DF93CF9300D090
:1003900000D000D0CDB7DEB7FC01242F80813AE039
:1003A000632F0E940C0289839A8381810E940C0230
:1003B0008B839C8382810E940C028D839E83CE015D
:1003C000019666E04AE00E94550126960FB6F89421
:1003D000DEBF0FBECDBFCF91DF91089563E040E057
:1003E0000E94C501089570E0660F771F21E030E09C
:1003F000A901062E02C0440F551F0A94E2F76F5F51
:100400007F4F02C0220F331F6A95E2F7422B0396FB
:1004100063E00E94C5010895991B79E004C0991F0B
:10042000961708F0961B881F7A95C9F7809508954E
:10043000A1E21A2EAA1BBB1BFD010DC0AA1FBB1FE8
:10044000EE1FFF1FA217B307E407F50720F0A21B5A
:10045000B30BE40BF50B661F771F881F991F1A94C7
:1004600069F760957095809590959B01AC01BD01F1
:08047000CF010895F894FFCFBD
:10047800050403020100FA227C76A6D6DE62FEF6A7
:040488000A00F00076
:00000001FF
